:100000000C940A010C9432010C9432010C943201CC
:100010000C9432010C9432010C9432010C94320194
:100020000C9432010C9432010C94A9070C9418081A
:100030000C9432010C9432010C9432010C94320174
:100040000C9432010C9432010C9432010C94320164
:100050000C9432010C9432010C9432010C945F0721
:100060000C9432010C9432010C9432010C94320144
:100070000C9432010C9432010C9432010C94320134
:100080000C9432010C9432010C9432010C94320124
:100090000C9432010C9432010C9432010C94320114
:1000A0000C9432010C9432010C943201080B0002C2
:1000B0000202000009040000010202000005240001
:1000C0001001052401010104240206052406000193
:1000D0000705810310004009040100020A00000026
:1000E00007050202400000070583024000000403E8
:1000F000090412010002EF02014041233680000191
:100100000102030141726475696E6F204C4C43001B
:1001100041726475696E6F204C656F6E6172646FB9
:1001200000070605040100080A0B0C0D090501096A
:1001300002A1010901A10085010509190129031581
:10014000002501950375018102950175058103055F
:10015000010930093109381581257F75089503811A
:1001600006C0C000000000000000002A2B2800008C
:10017000000000000000000000000000000000007F
:100180000000002C9EB4A0A1A2A434A6A7A5AE3660
:100190002D3738271E1F20212223242526B333B6CE
:1001A0002EB7B89F8485868788898A8B8C8D8E8FA1
:1001B000909192939495969798999A9B9C9D2F31A4
:1001C00030A3AD350405060708090A0B0C0D0E0F08
:1001D000101112131415161718191A1B1C1DAFB184
:1001E000B0B50005010906A1018502050719E0293E
:1001F000E7150025017501950881029501750881B3
:1002000003950675081500257305071900297381E4
:1002100000C04A0A11241FBECFEFDAE0DEBFCDBF17
:1002200011E0A0E0B1E0E8E3FCE102C005900D922E
:10023000A634B107D9F721E0A6E4B1E001C01D92D0
:10024000AE3FB207E1F711E0CAE0D1E004C0219768
:10025000FE010E94140EC930D107C9F70E94E80AB6
:100260000C941A0E0C940000FC01809182018823EA
:1002700011F13FB7F89482E08093E9002091F200F9
:10028000822F90E01816190614F481E090E088237C
:1002900039F0289844E6409381014091F100408371
:1002A000222339F02091F200211103C02BE6209384
:1002B000E8003FBF08958FEF9FEF08953FB7F89490
:1002C0008091790190917A01A0917B01B0917C019C
:1002D00026B5A89B05C02F3F19F00196A11DB11DA1
:1002E0003FBFBA2FA92F982F8827BC01CD01620FDD
:1002F000711D811D911D42E0660F771F881F991F98
:100300004A95D1F708958F929F92AF92BF92CF9264
:10031000DF92EF92FF926B017C010E945E014B0124
:100320005C01C114D104E104F104B9F00E945E0142
:10033000681979098A099B09683E7340810591050E
:1003400080F321E0C21AD108E108F10888EE880E96
:1003500083E0981EA11CB11CE4CFFF90EF90DF90CA
:10036000CF90BF90AF909F908F90089540916D0176
:1003700050916E0120916B0130916C01421753072F
:10038000B4F49091E8009570E1F39091E80092FD4B
:1003900019C08093F10080916D0190916E010196DA
:1003A0008F739927892B19F48EEF8093E800809141
:1003B0006D0190916E01019690936E0180936D0195
:1003C00081E0089580E00895EF92FF920F931F93CC
:1003D000CF93DF93F82E192FE62E042F81E0860F9E
:1003E000880F0E94B60183E00E94B601CF2DD12F65
:1003F000EC0EFD2EF11CCE15DF05B9F007FF13C082
:10040000FE0184910E94B601182F80E00E94B6017F
:10041000812321968111EFCFDF91CF911F910F9111
:10042000FF90EF9008958881EDCF81E0F5CFDF92C6
:10043000EF92FF920F931F93CF93DF93D82E8A01F1
:10044000EB017B01E40EF51ECE15DF0559F0D7FE5A
:1004500012C0FE0184910E94B60121968111F4CF51
:100460000FEF1FEFC801DF91CF911F910F91FF9008
:10047000EF90DF9008958881EECF2FB7F8948770C2
:100480008093E9009091E800892F807295FF04C065
:100490009091F20080E4891B2FBF08957F928F9284
:1004A0009F92AF92BF92CF92DF92EF92FF920F9303
:1004B0001F93CF93DF93C82E8B017A018091820125
:1004C000811110C08FEF9FEFDF91CF911F910F919E
:1004D000FF90EF90DF90CF90BF90AF909F908F9064
:1004E0007F9008958091710180FF05C08091E000A8
:1004F00082608093E000CE2DDF2DD12C8AEFB82EC4
:100500008C2D8770982E8C2D8072882E8C2D807467
:10051000782E9AE3A92E209719F4DD2009F452C011
:100520008C2D0E943D0281110AC0BA94BB2051F269
:1005300061E070E080E090E00E948301ECCF8C17D6
:100540001D0611F00CF08C2F9FB7F8949092E900E3
:100550002091E80025FD02C09FBFDDCF282F30E0AD
:10056000C21BD30B882029F08150A0F01092F1001B
:10057000FBCFF801C7FC0AC0815050F04191409375
:10058000F100FACF44914093F10031968150D0F7B9
:10059000020F131FDD2021F0A092E800D12CDCCF48
:1005A0008091E80085FD07C0A092E800DD24D39487
:1005B000209791F2F3CF209779F6772069F2A092F5
:1005C000E800CACF5D9884E680937001C7017CCFB4
:1005D000615030F02091F100FC0120830196F8CFAA
:1005E000289884E6809381010895809163018111A8
:1005F0000DC082E080935F0184E0809360011092DF
:1006000062011092610181E0809363018FE591E0C6
:1006100008950F931F93CF93DF931F92CDB7DEB74B
:1006200082E0898342E450E06CEA70E080E80E9456
:1006300017020E94F502DC0112960D911C91011522
:10064000110589F0D801ED91FC910280F381E02D34
:10065000BE016F5F7F4FC801099597FD04C0F80187
:1006600000851185ECCF89810F90DF91CF911F918B
:100670000F910895CF93DF93EC01809112018823AD
:1006800031F083E00E944E021816190634F081E022
:1006900090E09B838A8380E090E0DF91CF91089582
:1006A000CF93DF931F92CDB7DEB76983DC01ED9165
:1006B000FC910280F381E02D41E050E0BE016F5FCC
:1006C0007F4F09950F90DF91CF91089583E080933C
:1006D000E9008091F200882319F08AE38093E80012
:1006E000089583E00E943D0290E00895CF93DF9348
:1006F0001F92CDB7DEB7FC018485958597FD08C0B4
:100700002FEF3FEF358724870F90DF91CF9108952A
:10071000CE0101960E943401019719F4898190E07D
:10072000F3CF8FEF9FEFF0CF0F931F93CF93DF9314
:100730001F92CDB7DEB78C01FC018485958597FFAC
:100740000BC0CE0101960E943401019771F489819A
:1007500090E0F80195878487F801848595850F904E
:10076000DF91CF911F910F9108958FEF9FEFF1CF00
:100770002FB7F89480917D0190917E01A0917F0127
:10078000B09180012FBF80938B0190938C01A09337
:100790008D01B0938E0183E891E00E94940397FF4E
:1007A00026C02FB7F89480917D0190917E01A09191
:1007B0007F01B09180012FBF40918B0150918C013E
:1007C00060918D0170918E01841B950BA60BB70B68
:1007D00040918701509188016091890170918A014F
:1007E00084179507A607B707B0F28FEF9FEF08951C
:1007F000CF92DF92EF92FF92CF930E94B803FC0159
:1008000097FD4EC08D32910521F0C0970A9708F0F0
:1008100040C0C12CD12C7601C0E0E130F105D1F00F
:10082000ED32F105D9F1CF01C0970A9798F4AAE00B
:10083000B0E0A70196010E94D00D6F01FF0FEE08F6
:10084000FF08C60ED71EE81EF91E80E3C81AD1089D
:10085000E108F10883E891E00E9476030E94B80362
:10086000FC01C0970A97C8F2E130F105B1F2CC2340
:1008700041F0F094E094D094C094C11CD11CE11CD0
:10088000F11CC701B601CF91FF90EF90DF90CF90A0
:10089000089583E891E00E947603AFCFC1E0DACFFC
:1008A000C12CD12C7601EDCFFC018485958597FD77
:1008B0000BC09FB7F89482E08093E9008091F2002A
:1008C0009FBF90E0019608959FB7F89482E08093CF
:1008D000E9008091F2009FBF90E00895DC01FB01E8
:1008E00012962C911297848195812817190641F44C
:1008F00091818081813A31F49D7F81E0913009F0CE
:1009000080E008958132E1F79B3029F482811F96BF
:100910008C9381E008959A3099F7828150968C9358
:10092000F8CFAF92BF92CF92DF92EF92FF920F93E8
:100930001F93CF93DF931F92CDB7DEB77C016983FE
:100940006A01590141E050E0BE016F5F7F4FFC0139
:1009500083810E944E028C0197FD0BC0F7018381B9
:10096000A501B60180640E944E02080F191F97FD71
:100970008C01C8010F90DF91CF911F910F91FF90D3
:10098000EF90DF90CF90BF90AF900895DC01FB0116
:1009900088E4808389E4818384E482831D969C912A
:1009A0001D979F709F5B93831D968D919C9124E072
:1009B000969587952A95E1F78F708F5B848385E004
:1009C0000895EF92FF920F931F93CF93DF93FB0154
:1009D0002081213871F52381223259F5DC011296EC
:1009E0004C91248135814217130619F5EC010B85D2
:1009F0001C85F12CE12C0115110589F0F8014481C9
:100A000055816281738180E80E9417028F3F9807A9
:100A100049F0E80EF91ED8010D911C91ECCF81E050
:100A20008F87C701DF91CF911F910F91FF90EF90BA
:100A3000089590E080E0F6CFCF93DF93CDB7DEB797
:100A400069970FB6F894DEBF0FBECDBFFC01DB0186
:100A50008C918F5F8C939E012D5F3F4F8DE0D9016C
:100A60001D928A95E9F729E0298384E08A8391E041
:100A70009D8383E08E832A8721E22B879C879D8735
:100A80009F8722E2288B27E02B8B25E02C8B8E8BF7
:100A900020E430E0388F2F8B998F82818B8395856E
:100AA0008685998B8A8B838180688D8B49E150E0A4
:100AB000BE016F5F7F4F80E00E94170269960FB6FC
:100AC000F894DEBF0FBECDBFDF91CF910895CF93D5
:100AD000DF9380915701811167C081E080934A01C3
:100AE00080934B0120E531E030934D0120934C0180
:100AF00010924F0110924E012FE131E030934701E7
:100B0000209346011092520110925101109254010B
:100B100010925301809355018093560181EC80938C
:100B200050010E94F502FC01818190914A01482FF9
:100B3000490F5527551F483051059CF5A281B381B7
:100B4000109709F526E431E0338322832081209336
:100B500048018093490180914B01820F808320914D
:100B60004C01A22FB0914D018A2F821B8917C8F426
:100B700081813D91C82FD0E0C050DF4F38838F5F17
:100B80008183F2CFD90118962D913C9119972115A7
:100B90003105C1F726E431E019963C932E9318975E
:100BA000D5CF81E08093570186E491E0DF91CF912A
:100BB0000895CF93DF93EC010E94670528E030E0B1
:100BC000AE0162E0DF91CF910C949104E0EFF1E08F
:100BD000168217821086118612861386148284EF7D
:100BE00091E00C94D905CF93DF9300D000D0CDB71E
:100BF000DEB79091E10199838A836B831C820E9406
:100C0000670524E030E0AE014F5F5F4F61E00E9476
:100C100091040F900F900F900F90DF91CF91089556
:100C20008091E101982F9E7F80FF06C09093E101A3
:100C300060E080E00C94F30508959091E101892F24
:100C40008160981731F08093E10160E080E00C94BE
:100C5000F3050895CF92DF92EF92FF920F931F93C7
:100C6000CF93DF936C01EB017B01E40EF51E10E0E6
:100C700000E0CE15DF0581F069916D30D1F3D6012A
:100C8000ED91FC910190F081E02DC6010995892B31
:100C900019F00F5F1F4FEDCFC801DF91CF911F916A
:100CA0000F91FF90EF90DF90CF900895DC016838AE
:100CB000A0F06858FD0186E0662321F09681961326
:100CC00001C01682815031968111F6CFCD01049674
:100CD0000E94D90581E090E00895862F90E067FF9B
:100CE00013C0FC01E058F10981E090E001C0880FD9
:100CF000EA95EAF7809514969C91149789231496A7
:100D00008C93149760E0D6CF1C96ED91FC911D97C3
:100D1000E80FF91F64916623E1F0862F807C803C08
:100D200069F414968C9114978F7B14968C93149776
:100D30006F73623309F0BECF64E6BCCF67FFF9CFB3
:100D400014968C9114978D7F14968C9314976F77CB
:100D5000F0CF90E080E00895DC01683888F16858B1
:100D600016968C911697861721F117968C911797E6
:100D70008617F9F018968C9118978617D1F0199666
:100D80008C9119978617A9F01A968C911A97861745
:100D900081F01B968C911B97861759F0FD013696B2
:100DA00090E080E0219121114FC08A0F9B1FFC0130
:100DB0006683CD0104960E94D90581E090E00895F4
:100DC000862F90E067FF12C0FC01E058F10921E096
:100DD00030E001C0220FEA95EAF714968C9114973F
:100DE000822B14968C93149760E0BACF1C96ED91E9
:100DF000FC911D97E80FF91F6491611109C081E012
:100E000090E013969C938E93129790E080E0089563
:100E1000862F807C803C69F414968C9114978064B2
:100E200014968C9314976F73623309F099CF64E62C
:100E300097CF67FFF9CF14968C9114978260149620
:100E40008C9314976F77F0CF01968630910509F057
:100E5000A9CFD5CFEF92FF921F93CF93DF93EC01F1
:100E6000162F0E94AC067C01612FCE010E9456060F
:100E7000C7019927DF91CF911F91FF90EF900895BF
:100E8000089590E080E00895CF93C82F682F80EFF9
:100E900091E00E94AC060E94590D26E430E040E04B
:100EA00050E00E94B10D605B7F4F8F4F9F4F0E94BB
:100EB00083016C2F80EF91E0CF910C9456061F9226
:100EC0000F920FB60F9211242F933F938F939F93FE
:100ED000AF93BF9380917D0190917E01A0917F019E
:100EE000B09180013091780123E0230F2D3758F520
:100EF0000196A11DB11D2093780180937D019093EF
:100F00007E01A0937F01B09380018091790190913F
:100F10007A01A0917B01B0917C010196A11DB11DC8
:100F20008093790190937A01A0937B01B0937C0127
:100F3000BF91AF919F918F913F912F910F900FBED5
:100F40000F901F90189526E8230F0296A11DB11D42
:100F5000D2CF1F920F920FB60F9211248F939F93AF
:100F60008091E1009091E100937F9093E10083FFF5
:100F70000FC01092E90091E09093EB001092EC000A
:100F800092E39093ED001092820198E09093F0002C
:100F900082FF22C093E09093E9009091F2009923A0
:100FA00019F09AE39093E80090917001992341F031
:100FB00090917001915090937001911101C05D9AD0
:100FC00090918101992341F09091810191509093EA
:100FD0008101911101C0289A84FF18C08091E2001C
:100FE0008E7E81608093E2008091E1008F7E80930D
:100FF000E100809171018E7E8061809371019F91EB
:101000008F910F900FBE0F901F90189580FFF7CF14
:101010008091E2008E7E80618093E2008091E10009
:101020008E7E8093E100809171018E7E8160E5CF9C
:101030001F920F920FB60F921124CF92DF92EF9270
:10104000FF920F931F932F933F934F935F936F9351
:101050007F938F939F93AF93BF93EF93FF93CF9320
:10106000DF93CDB7DEB76C97DEBFCDBF1092E9003E
:101070008091E80083FF25C068E0CE0145960E947C
:10108000E80282EF8093E8008D8987FF39C0909154
:10109000E80090FFFCCF982F907609F034C19E892C
:1010A0004F89588D2F89F88C911131C0803861F5A6
:1010B000809172018093F1001092F1008EEF809385
:1010C000E8006C960FB6F894DEBF0FBECDBFDF917F
:1010D000CF91FF91EF91BF91AF919F918F917F91B0
:1010E0006F915F914F913F912F911F910F91FF90C1
:1010F000EF90DF90CF900F900FBE0F901F9018953C
:101100009EEF9093E800C7CF1092F100D5CF9130B9
:1011100059F48111D3CF4130510581F6809172018C
:101120008D7F80937201CACF933049F48111C6CF6D
:101130004130510519F6809172018260F2CF9530ED
:1011400041F48091E80080FFFCCF20682093E30009
:10115000B5CF963009F0A9C00B8D1C8D22E01092FE
:10116000E90010926E0110926D01F2122EC01092E1
:101170006C0110926B010E9409031F8299E0998310
:10118000FA8291E09E8390EA98879AEF998720915E
:101190006D0130916E01275F3F4F3C832B838D8320
:1011A0001092E90010926E0110926D0110936C0183
:1011B00000936B0149E050E0BE016F5F7F4F80E01C
:1011C0000E9417020E94090379CF10936C010093CB
:1011D0006B010E94F502DC0112960D911C91011524
:1011E000110509F451C1D801ED91FC910480F581FC
:1011F000E02DBE016B5E7F4FC8010995009709F095
:101200003EC1F80100851185EACFF3E0FF120EC060
:101210008F89882309F440C0823061F440E860E19E
:1012200080E191E00E94E401811148CF81E2809346
:10123000EB0047CF813029F440E86BE084E091E097
:10124000F1CF833099F70E94F502DC011296ED9000
:10125000FC908E010F5F1F4F6801E114F10479F0DB
:10126000D701ED91FC910680F781E02DB801C7010F
:101270000995080F111DF701E084F184EECFD80124
:101280001C92F60101900020E9F73197BF016C191B
:101290007D0940E0C601C6CF6EEE70E0FB014491CF
:1012A00050E080E80E94170209CF973009F4BECFC2
:1012B000983021F481E08093F10000CF993009F05B
:1012C000FDCE837009F0B2CFE1E0F1E081E031E0E2
:1012D00096E32191222371F08093E9003093EB0093
:1012E000DF0111972C912093EC009093ED008F5F1C
:1012F000873079F78EE78093EA001092EA008F89B1
:1013000080938201DBCE8B8D9C8D1092E900109230
:101310006E0110926D0190936C0180936B01898D29
:10132000811192C08E899D89913A49F4813209F0E8
:101330007DCF47E050E06BE071E080E0B3CF9132C9
:1013400009F074CF833269F48F89988DB0E0A0E002
:101350008093070190930801A0930901B0930A01BB
:10136000ADCE803269F48091E80082FFFCCF67E067
:101370008BE091E00E94E8028BEF8093E8009ECE24
:10138000823209F09BCE8F8980931201EEEFFFE746
:10139000859194918B3F9C4D51F1E0E0F8E0809174
:1013A0000B0190910C01A0910D01B0910E01803BB9
:1013B0009440A105B105F1F48091120180FD1AC09D
:1013C000EE3F8AE0F80789F587E797E79183808306
:1013D0008091600080936F0188E19BE00FB6F894E4
:1013E000A895809360000FBE9093600067CEEEEFEB
:1013F000FAE0D5CF808191818737974709F05ECE9B
:10140000A8958091600088618093600080916F0151
:1014100080936000EE3F2AE0F20789F08091FE0A97
:101420009091FF0A9183808349CE80819181873793
:10143000980751F29093FF0A8093FE0AC5CF10924D
:10144000FF0A1092FE0A3ACE0E94F502DC011296C3
:101450000D911C910115110509F4E8CED801ED910B
:10146000FC910190F081E02DBE016B5E7F4FC801C1
:101470000995811123CEF80100851185EBCF18164F
:1014800019060CF41BCED2CEF1E0FF12BECE62EFF5
:1014900070E004CF109286011092850188EE93E0EF
:1014A000A0E0B0E08093870190938801A093890128
:1014B000B0938A018BE291E0909384018093830141
:1014C0008FEF9FEF9093900180938F011092E10135
:1014D0008091D901811113C01092D4011092D301CF
:1014E0008DE291E09093D6018093D50186E390E060
:1014F0009093D8018093D70181E08093D9010E9415
:101500006705FC01A385B485109709F04CC083EDF5
:1015100091E094878387858596852091D7013091C6
:10152000D801820F931F968785871092F30110923E
:10153000F2018DE391E09093F1018093F0018091AD
:10154000E801811113C01092E3011092E20183EED1
:1015500091E09093E5018093E4018FE290E0909315
:10156000E7018093E60181E08093E8010E9467052E
:10157000FC01A385B485109709F582EE91E094876C
:101580008387858596852091E6013091E701820F5A
:10159000931F9687858783E691E09093FD01809362
:1015A000FC010895DC018D919C9111970097D1F772
:1015B00083ED91E08D939C93AECFDC018D919C9156
:1015C00011970097D1F782EE91E08D939C93D9CF3C
:1015D000789484B5826084BD84B5816084BD85B50E
:1015E000826085BD85B5816085BD80916E0081601A
:1015F00080936E00109281008091810082608093C0
:1016000081008091810081608093810080918000C1
:10161000816080938000809191008260809391002E
:101620008091910081608093910080919000816011
:10163000809390008091C10084608093C10080916C
:10164000C10082608093C1008091C100816080935D
:10165000C1008091C30081608093C3008091C0006D
:1016600082608093C0008091C20081608093C2003C
:1016700080917A00846080937A0080917A00826001
:1016800080937A0080917A00816080937A008091C3
:101690007A00806880937A00109282011092720121
:1016A000109271018091D70081608093D70080EA09
:1016B0008093D80089B5806189BD89B5826089BD74
:1016C00009B400FEFDCF61E070E080E090E00E9490
:1016D00083018091D8008F7C80618093D8008091B5
:1016E000E000807F8093E0008091E1008E7E809317
:1016F000E1008DE08093E200559A209A8FEF9FEFF2
:101700009093900180938F018AE090E0A0E0B0E098
:101710008093870190938801A0938901B0938A01F7
:1017200083E691E09093FD018093FC01E1E2F1E01A
:10173000E49190917B008E2F880F880F80729F7D9F
:10174000892B80937B00E770E064E0937C008091BC
:101750007A00806480937A0080917A0086FDFCCFC5
:101760006091780070917900072E000C880B990B1E
:10177000611571058105910511F00E94A80D68EBB6
:101780007BE080E090E00E9483018DE2882E912C26
:10179000A12CB12C9FE5492E512C612C712CD1E04C
:1017A000C1E000E010E080917701882309F450C087
:1017B0008FB7F894C0907D01D0907E01E0907F01BA
:1017C000F09080018FBF8091730190917401A0917E
:1017D0007501B0917601B701A601481B590B6A0B40
:1017E0007B0B8091130190911401A0911501B09190
:1017F0001601481759076A077B0750F10E941D061A
:101800000E94590DA50194010E94B10D625E7F4FA7
:101810008F4F9F4F0E9483010E941006C092730158
:10182000D0927401E0927501F09276010E94590DF8
:10183000A30192010E94B10D6B5A7F4F8F4F9F4FB2
:101840006093130170931401809315019093160116
:1018500083E891E00E945404181619060CF0D6C0D3
:1018600083E891E00E9476038C3389F40E94F803A8
:10187000F62E0E94F803E62E83E891E00E9476039C
:10188000CE9731F76E2D8F2D0E94F305E1CF8B346B
:1018900099F40E941D060E94590D2EE130E040E0AF
:1018A00050E00E94B10D6C5E7F4F8F4F9F4F0E94A2
:1018B00083010E941006CCCF853559F41092770130
:1018C0000E94E60565E070E080E090E00E94830100
:1018D000BFCF883441F461E880EF91E00E94AC060C
:1018E000C0937701B5CF823541F461E880EF91E094
:1018F0000E94560610927701ABCF843531F4809167
:1019000077018D2780937701A3CFEFECE80FEA32C0
:1019100008F09ECF0E2E000CFF0BEF56F34F0C94E9
:10192000140EF20CF40CF60CF80CD00CFA0CFC0CA7
:10193000FE0CCC0C280C280C280C280C280C280C8D
:10194000280CCC0CBB0CD20C280CD00C280C280C6E
:10195000280C280C280C280C280C280C280C280CE7
:10196000280C280C280C280C280C280C280C280CD7
:10197000000D020D040D8AEC0E9444070E94590DCF
:101980002CE330E040E050E00E94B10D6A5B7F4FF5
:101990008F4F9F4F0E9483018AEC0E94440758CFCB
:1019A00086ECFBCF109277010E94E6056AE070E0BA
:1019B00080E090E00E94830169EC80EF91E00E945A
:1019C000AC060E94590D2CE231E040E050E00E944C
:1019D000B10D645B7B4F8F4F9F4F0E9483010E942C
:1019E000E60536CF82ECD9CF83ECD7CF84ECD5CFC8
:1019F00085ECD3CF87ECD1CF88ECCFCF89ECCDCF9E
:101A00008BECCBCF8CECC9CF8DECC7CF011511057A
:101A100009F4C9CE0E940000C4CE8F929F92AF926B
:101A2000BF92CF92DF92EF92FF92CF93DF93EC01C0
:101A3000688179818A819B81611571058105910594
:101A400021F464E279ED8BE597E02DE133EF41E09D
:101A500050E00E94B10D49015A019B01AC01A7EA77
:101A6000B1E40E94D00D6B017C01ACEEB4EFA50196
:101A700094010E94DE0DC60ED71EE81EF91EF7FE69
:101A800006C081E0C81AD108E10880E8F80AC882D7
:101A9000D982EA82FB82C701B6019F77DF91CF919D
:101AA000FF90EF90DF90CF90BF90AF909F908F907E
:101AB00008958F929F92AF92BF92CF92DF92EF9252
:101AC000FF92609117017091180180911901909116
:101AD0001A01611571058105910521F464E279ED22
:101AE0008BE597E02DE133EF41E050E00E94B10D2E
:101AF00049015A019B01AC01A7EAB1E40E94D00D53
:101B00006B017C01ACEEB4EFA50194010E94DE0DE7
:101B1000C60ED71EE81EF91EF7FE06C081E0C81AE1
:101B2000D108E10880E8F80AC0921701D0921801A4
:101B3000E0921901F0921A01C701B6019F77FF9058
:101B4000EF90DF90CF90BF90AF909F908F900895CF
:101B500060931701709318018093190190931A01F3
:101B60000895052E97FB1EF400940E94C80D57FDA2
:101B700007D00E94E30D07FC03D04EF40C94C80D6F
:101B800050954095309521953F4F4F4F5F4F0895A9
:101B900090958095709561957F4F8F4F9F4F0895D9
:101BA0000E94050EA59F900DB49F900DA49F800DDF
:101BB000911D11240895B7FF0C94D00D0E94D00DF3
:101BC000821B930B0895A1E21A2EAA1BBB1BFD01D9
:101BD0000DC0AA1FBB1FEE1FFF1FA217B307E4070C
:101BE000F50720F0A21BB30BE40BF50B661F771F64
:101BF000881F991F1A9469F7609570958095909544
:101C00009B01AC01BD01CF010895A29FB001B39F1C
:101C1000C001A39F700D811D1124911DB29F700DF5
:101C2000811D1124911D0895EE0FFF1F0590F49161
:081C3000E02D0994F894FFCFA8
:101C380000C18081000000FFFFFFFF00E1000000FD
:101C48000000006400000001000000000000006EB9
:101C5800041C05E104C6040000000050033A0371A7
:101C6800036603540476039403000000002A072A3D
:061C7800064107400700D1
:00000001FF
