:100000000C940F010C9437010C9437010C943701B8
:100010000C9437010C9437010C9437010C94370180
:100020000C9437010C9437010C94CE070C944B08B8
:100030000C9437010C9437010C9437010C94370160
:100040000C9437010C9437010C9437010C94370150
:100050000C9437010C9437010C9437010C948407ED
:100060000C9437010C9437010C9437010C94370130
:100070000C9437010C9437010C9437010C94370120
:100080000C9437010C9437010C9437010C94370110
:100090000C9437010C9437010C9437010C94370100
:1000A0000C9437010C9437010C943701080B0002B3
:1000B0000202000009040000010202000005240001
:1000C0001001052401010104240206052406000193
:1000D0000705810310004009040100020A00000026
:1000E00007050202400000070583024000000403E8
:1000F000090412010002EF02014041233680000191
:100100000102030141726475696E6F204C4C43001B
:1001100041726475696E6F204C656F6E6172646FB9
:1001200000070605040100080A0B0C0D0944444FA2
:100130004E472D56340005010902A1010901A10015
:10014000850105091901290315002501950375018C
:1001500081029501750581030501093009310938CE
:100160001581257F750895038106C0C00000000039
:10017000000000002A2B2800000000000000000002
:100180000000000000000000000000002C9EB4A051
:10019000A1A2A434A6A7A5AE362D3738271E1F204E
:1001A000212223242526B333B62EB7B89F84858613
:1001B0008788898A8B8C8D8E8F9091929394959657
:1001C0009798999A9B9C9D2F3130A3AD35040506D5
:1001D0000708090A0B0C0D0E0F1011121314151637
:1001E0001718191A1B1C1DAFB1B0B500050109067F
:1001F000A1018502050719E029E715002501750110
:10020000950881029501750881039506750815000A
:1002100025730507190029738100C0007D0A112488
:100220001FBECFEFDAE0DEBFCDBF11E0A0E0B1E04E
:10023000E6E8FDE102C005900D92A834B107D9F7B8
:1002400022E0A8E4B1E001C01D92A030B207E1F7BE
:1002500011E0CFE0D1E004C02197FE010E94BB0E67
:10026000CE30D107C9F70E941B0B0C94C10E0C9421
:10027000000083E08093E9008091F200882319F068
:100280008AE38093E8000895FC018091840188232B
:1002900011F13FB7F89482E08093E9002091F200D9
:1002A000822F90E01816190614F481E090E088235C
:1002B00039F0289844E6409383014091F10040834F
:1002C000222339F02091F200211103C02BE6209364
:1002D000E8003FBF08958FEF9FEF08953FB7F89470
:1002E00080917F0190918001A0918101B091820164
:1002F00026B5A89B05C02F3F19F00196A11DB11D81
:100300003FBFBA2FA92F982F8827BC01CD01620FBC
:10031000711D811D911D42E0660F771F881F991F77
:100320004A95D1F708958F929F92AF92BF92CF9244
:10033000DF92EF92FF926B017C010E946E014B01F4
:100340005C01C114D104E104F104B9F00E946E0112
:10035000681979098A099B09683E734081059105EE
:1003600080F321E0C21AD108E108F10888EE880E76
:1003700083E0981EA11CB11CE4CFFF90EF90DF90AA
:10038000CF90BF90AF909F908F9008952FB7F89423
:1003900060917B0170917C0180917D0190917E0143
:1003A0002FBF08950C94390140916F015091700155
:1003B00020916D0130916E0142175307B4F4909172
:1003C000E8009570E1F39091E80092FD19C08093E8
:1003D000F10080916F019091700101968F739927C0
:1003E000892B19F48EEF8093E80080916F01909132
:1003F000700101969093700180936F0181E00895E0
:1004000080E00895EF92FF920F931F93CF93DF93B5
:10041000F82E192FE62E042F81E0860F880F0E94F8
:10042000D40183E00E94D401CF2DD12FEC0EFD2EFC
:10043000F11CCE15DF05B9F007FF13C0FE01849152
:100440000E94D401182F80E00E94D40181232196BC
:100450008111EFCFDF91CF911F910F91FF90EF901E
:1004600008958881EDCF81E0F5CFDF92EF92FF9282
:100470000F931F93CF93DF93D82E8A01EB017B015B
:10048000E40EF51ECE15DF0559F0D7FE12C0FE01B1
:1004900084910E94D40121968111F4CF0FEF1FEFB8
:1004A000C801DF91CF911F910F91FF90EF90DF90E6
:1004B00008958881EECF2FB7F89487708093E90074
:1004C0009091E800892F807295FF04C09091F2000E
:1004D00080E4891B2FBF08957F928F929F92AF92E5
:1004E000BF92CF92DF92EF92FF920F931F93CF9321
:1004F000DF93C82E8B017A0180918401811110C095
:100500008FEF9FEFDF91CF911F910F91FF90EF90B1
:10051000DF90CF90BF90AF909F908F907F90089585
:100520008091730180FF05C08091E000826080931C
:10053000E000CE2DDF2DD12C8AEFB82E8C2D8770C8
:10054000982E8C2D8072882E8C2D8074782E9AE3B4
:10055000A92E209719F4DD2009F452C08C2D0E9499
:100560005B0281110AC0BA94BB2051F261E070E0D5
:1005700080E090E00E949301ECCF8C171D0611F0F3
:100580000CF08C2F9FB7F8949092E9002091E8002E
:1005900025FD02C09FBFDDCF282F30E0C21BD30B4B
:1005A000882029F08150A0F01092F100FBCFF801D3
:1005B000C7FC0AC0815050F041914093F100FACF3E
:1005C00044914093F10031968150D0F7020F131FF0
:1005D000DD2021F0A092E800D12CDCCF8091E80052
:1005E00085FD07C0A092E800DD24D394209791F206
:1005F000F3CF209779F6772069F2A092E800CACF6E
:100600005D9884E680937201C7017CCF615030F021
:100610002091F100FC0120830196F8CF289884E610
:100620008093830108958091650181110DC082E05E
:100630008093610184E080936201109264011092C2
:10064000630181E08093650181E691E008950F9355
:100650001F93CF93DF931F92CDB7DEB782E08983DC
:1006600042E450E06CEA70E080E80E9435020E94AB
:100670001303DC0112960D911C910115110589F0EF
:10068000D801ED91FC910280F381E02DBE016F5FF6
:100690007F4FC801099597FD04C0F80100851185B9
:1006A000ECCF89810F90DF91CF911F910F91089529
:1006B000CF93DF93EC0180911201882331F083E026
:1006C0000E946C021816190634F081E090E09B83BA
:1006D0008A8380E090E0DF91CF910895CF93DF93FC
:1006E0001F92CDB7DEB76983DC01ED91FC910280EA
:1006F000F381E02D41E050E0BE016F5F7F4F09952F
:100700000F90DF91CF91089583E00E945B0290E00B
:100710000895CF93DF931F92CDB7DEB7FC01848598
:10072000958597FD08C02FEF3FEF358724870F9001
:10073000DF91CF910895CE0101960E944401019767
:1007400019F4898190E0F3CF8FEF9FEFF0CF0F93F3
:100750001F93CF93DF931F92CDB7DEB78C01FC01BF
:100760008485958597FF0BC0CE0101960E944401B8
:10077000019771F4898190E0F80195878487F801E9
:10078000848595850F90DF91CF911F910F910895EA
:100790008FEF9FEFF1CF0F931F930E94C6016093DD
:1007A0008D0170938E0180938F019093900185E865
:1007B00091E00E94A70397FF1DC00E94C60100910F
:1007C0008D0110918E0120918F0130919001601B5D
:1007D000710B820B930B0091890110918A0120917A
:1007E0008B0130918C016017710782079307F8F233
:1007F0008FEF9FEF1F910F910895CF92DF92EF92AD
:10080000FF92CF930E94CB03FC0197FD4EC08D3227
:10081000910521F0C0970A9708F040C0C12CD12C57
:100820007601C0E0E130F105D1F0ED32F105D9F10A
:10083000CF01C0970A9798F4AAE0B0E0A70196010B
:100840000E94770E6F01FF0FEE08FF08C60ED71E3D
:10085000E81EF91E80E3C81AD108E108F10885E80E
:1008600091E00E9489030E94CB03FC01C0970A9784
:10087000C8F2E130F105B1F2CC2341F0F094E094FC
:10088000D094C094C11CD11CE11CF11CC701B6015D
:10089000CF91FF90EF90DF90CF90089585E891E0A1
:1008A0000E948903AFCFC1E0DACFC12CD12C7601F1
:1008B000EDCFFC018485958597FD0BC09FB7F8941B
:1008C00082E08093E9008091F2009FBF90E0019662
:1008D00008959FB7F89482E08093E9008091F20038
:1008E0009FBF90E00895DC01FB0112962C911297B6
:1008F000848195812817190641F491818081813A7C
:1009000031F49D7F81E0913009F080E008958132DB
:10091000E1F79B3029F482811F968C9381E0089542
:100920009A3099F7828150968C93F8CFAF92BF920C
:10093000CF92DF92EF92FF920F931F93CF93DF93AB
:100940001F92CDB7DEB77C0169836A01590141E08E
:1009500050E0BE016F5F7F4FFC0183810E946C02FB
:100960008C0197FD0BC0F7018381A501B60180645E
:100970000E946C02080F191F97FD8C01C8010F908F
:10098000DF91CF911F910F91FF90EF90DF90CF906B
:10099000BF90AF900895DC01FB0188E4808389E477
:1009A000818384E482831D969C911D979F709F5B39
:1009B00093831D968D919C9124E0969587952A9519
:1009C000E1F78F708F5B848385E00895EF92FF924B
:1009D0000F931F93CF93DF93FB012081213871F593
:1009E0002381223259F5DC0112964C912481358104
:1009F0004217130619F5EC010B851C85F12CE12C2F
:100A00000115110589F0F8014481558162817381D6
:100A100080E80E9435028F3F980749F0E80EF91EE2
:100A2000D8010D911C91ECCF81E08F87C701DF9138
:100A3000CF911F910F91FF90EF90089590E080E08B
:100A4000F6CFCF93DF93CDB7DEB769970FB6F894A3
:100A5000DEBF0FBECDBFFC01DB018C918F5F8C939D
:100A60009E012D5F3F4F8DE0D9011D928A95E9F7D8
:100A700029E0298384E08A8391E09D8383E08E834B
:100A80002A8721E22B879C879D879F8722E2288BDC
:100A900027E02B8B25E02C8B8E8B20E430E0388FE9
:100AA0002F8B998F82818B8395858685998B8A8BF5
:100AB000838180688D8B49E150E0BE016F5F7F4F7D
:100AC00080E00E94350269960FB6F894DEBF0FBE33
:100AD000CDBFDF91CF910895CF93DF9380915901DE
:100AE000811167C081E080934C0180934D0122E524
:100AF00031E030934F0120934E011092510110923A
:100B000050012FE131E030934901209348011092C8
:100B10005401109253011092560110925501809386
:100B200057018093580181EC809352010E94130376
:100B3000FC01818190914C01482F490F5527551F89
:100B4000483051059CF5A281B381109709F528E43E
:100B500031E033832283208120934A0180934B012B
:100B600080914D01820F808320914E01A22FB09180
:100B70004F018A2F821B8917C8F481813D91C82FAC
:100B8000D0E0C050DF4F38838F5F8183F2CFD9012F
:100B900018962D913C91199721153105C1F728E43C
:100BA00031E019963C932E931897D5CF81E080932E
:100BB000590188E491E0DF91CF910895CF93DF93BD
:100BC00000D000D0CDB7DEB79091E30199838A833E
:100BD0006B834C830E946C0524E030E0AE014F5FD4
:100BE0005F4F61E00E9496040F900F900F900F905E
:100BF000DF91CF9108959091E30180958923981713
:100C000039F08093E30140E060E080E00C94DE0581
:100C100008959091E301892B981739F08093E301AF
:100C200040E060E080E00C94DE050895CF93DF9310
:100C3000EC010E946C0528E030E0AE0162E0DF913B
:100C4000CF910C949604E2EFF1E0168217821086A1
:100C5000118612861386148286EF91E00C94160694
:100C6000CF92DF92EF92FF920F931F93CF93DF9378
:100C70006C01EB017B01E40EF51E10E000E0CE15E7
:100C8000DF0581F069916D30D1F3D601ED91FC91D2
:100C90000190F081E02DC6010995892B19F00F5FB5
:100CA0001F4FEDCFC801DF91CF911F910F91FF90A2
:100CB000EF90DF90CF900895DC016838A0F068587D
:100CC000FD0186E0662321F09681961301C016820D
:100CD000815031968111F6CFCD0104960E941606FF
:100CE00081E090E00895862F90E067FF13C0FC013B
:100CF000E058F10981E090E001C0880FEA95EAF739
:100D0000809514969C911497892314968C9314972C
:100D100060E0D6CF1C96ED91FC911D97E80FF91F6E
:100D200064916623E1F0862F807C803C69F4149600
:100D30008C9114978F7B14968C9314976F736233F6
:100D400009F0BECF64E6BCCF67FFF9CF14968C9153
:100D500014978D7F14968C9314976F77F0CF90E053
:100D600080E00895DC01683888F1685816968C9107
:100D70001697861721F117968C9117978617F9F019
:100D800018968C9118978617D1F019968C9119970F
:100D90008617A9F01A968C911A97861781F01B96E0
:100DA0008C911B97861759F0FD01369690E080E0F4
:100DB000219121114FC08A0F9B1FFC016683CD0139
:100DC00004960E94160681E090E00895862F90E038
:100DD00067FF12C0FC01E058F10921E030E001C0DA
:100DE000220FEA95EAF714968C911497822B1496A9
:100DF0008C93149760E0BACF1C96ED91FC911D97EF
:100E0000E80FF91F6491611109C081E090E0139629
:100E10009C938E93129790E080E00895862F807CBB
:100E2000803C69F414968C911497806414968C938A
:100E300014976F73623309F099CF64E697CF67FF19
:100E4000F9CF14968C911497826014968C93149712
:100E50006F77F0CF01968630910509F0A9CFD5CFF5
:100E6000EF92FF921F93CF93DF93EC01162F0E9416
:100E7000B2067C01612FCE010E945C06C701992752
:100E8000DF91CF911F91FF90EF900895089590E02A
:100E900080E0089581E00E94FB0582E00E94FB054E
:100EA00084E00C94FB05CF93C82F682F82EF91E06C
:100EB0000E94B2060E94000E26E430E040E050E0BE
:100EC0000E94580E605B7F4F8F4F9F4F0E9493018F
:100ED0006C2F82EF91E0CF910C945C06CF93C82FDA
:100EE0000E9409060E94000E2EE130E040E050E032
:100EF0000E94580E6C5E7F4F8F4F9F4F0E94930150
:100F00008C2FCF910C94FB051F920F920FB60F926E
:100F100011242F933F938F939F93AF93BF9380910F
:100F20007B0190917C01A0917D01B0917E01309177
:100F30007A0123E0230F2D3758F50196A11DB11D2D
:100F400020937A0180937B0190937C01A0937D0193
:100F5000B0937E0180917F0190918001A0918101E9
:100F6000B09182010196A11DB11D80937F019093E4
:100F70008001A0938101B0938201BF91AF919F91B5
:100F80008F913F912F910F900FBE0F901F9018954A
:100F900026E8230F0296A11DB11DD2CF1F920F92FA
:100FA0000FB60F9211242F933F934F935F936F933C
:100FB0007F938F939F93AF93BF93CF93EF93FF93C1
:100FC000C091E1008091E100837F8093E100C3FF45
:100FD0000FC01092E90081E08093EB001092EC00CA
:100FE00082E38093ED001092840188E08093F0000A
:100FF000C2FF1AC00E94390180917201882341F01A
:1010000080917201815080937201811101C05D9ABB
:1010100080918301882341F08091830181508093E6
:101020008301811101C0289AC4FF23C08091E2008E
:101030008E7E81608093E2008091E1008F7E8093BC
:10104000E100809173018E7E806180937301FF9136
:10105000EF91CF91BF91AF919F918F917F916F91C0
:101060005F914F913F912F910F900FBE0F901F9066
:101070001895C0FFECCF8091E2008E7E8061809356
:10108000E2008091E1008E7E8093E1008091730107
:101090008E7E8160DACF1F920F920FB60F921124CD
:1010A000CF92DF92EF92FF920F931F932F933F9374
:1010B0004F935F936F937F938F939F93AF93BF9360
:1010C000EF93FF93CF93DF93CDB7DEB76C97DEBF7F
:1010D000CDBF1092E9008091E80083FF25C068E051
:1010E000CE0145960E94060382EF8093E8008D8929
:1010F00087FF39C09091E80090FFFCCF982F907641
:1011000009F034C19E894F89588D2F89F88C91112F
:1011100031C0803861F5809174018093F1001092A4
:10112000F1008EEF8093E8006C960FB6F894DEBF66
:101130000FBECDBFDF91CF91FF91EF91BF91AF91E6
:101140009F918F917F916F915F914F913F912F91DF
:101150001F910F91FF90EF90DF90CF900F900FBEF7
:101160000F901F9018959EEF9093E800C7CF1092B4
:10117000F100D5CF913059F48111D3CF41305105D1
:1011800081F6809174018D7F80937401CACF933072
:1011900049F48111C6CF4130510519F6809174018F
:1011A0008260F2CF953041F48091E80080FFFCCF5F
:1011B00020682093E300B5CF963009F0A9C00B8DCD
:1011C0001C8D22E01092E9001092700110926F01C4
:1011D000F2122EC010926E0110926D010E94270330
:1011E0001F8299E09983FA8291E09E8390EA988722
:1011F0009AEF998720916F0130917001275F3F4FDF
:101200003C832B838D831092E90010927001109221
:101210006F0110936E0100936D0149E050E0BE0133
:101220006F5F7F4F80E00E9435020E94270379CFD5
:1012300010936E0100936D010E941303DC0112965E
:101240000D911C910115110509F451C1D801ED91C1
:10125000FC910480F581E02DBE016B5E7F4FC801DB
:101260000995009709F03EC1F80100851185EACF84
:10127000F3E0FF120EC08F89882309F440C082304A
:1012800061F440E860E180E191E00E940202811196
:1012900048CF81E28093EB0047CF813029F440E8CA
:1012A0006BE084E091E0F1CF833099F70E94130363
:1012B000DC011296ED90FC908E010F5F1F4F6801CC
:1012C000E114F10479F0D701ED91FC910680F781EA
:1012D000E02DB801C7010995080F111DF701E08441
:1012E000F184EECFD8011C92F60101900020E9F7BD
:1012F0003197BF016C197D0940E0C601C6CF6EEE83
:1013000070E0FB01449150E080E80E94350209CF73
:10131000973009F4BECF983021F481E08093F1003A
:1013200000CF993009F0FDCE837009F0B2CFE1E033
:10133000F1E081E031E096E32191222371F0809386
:10134000E9003093EB00DF0111972C912093EC0022
:101350009093ED008F5F873079F78EE78093EA00F6
:101360001092EA008F8980938401DBCE8B8D9C8D57
:101370001092E9001092700110926F0190936E012B
:1013800080936D01898D811192C08E899D89913ADA
:1013900049F4813209F07DCF47E050E06BE071E025
:1013A00080E0B3CF913209F074CF833269F48F8932
:1013B000988DB0E0A0E08093070190930801A0937E
:1013C0000901B0930A01ADCE803269F48091E80042
:1013D00082FFFCCF67E08BE091E00E9406038BEF79
:1013E0008093E8009ECE823209F09BCE8F89809355
:1013F0001201EEEFFFE7859194918B3F9C4D51F1E7
:10140000E0E0F8E080910B0190910C01A0910D01BA
:10141000B0910E01803B9440A105B105F1F480919B
:10142000120180FD1AC0EE3F8AE0F80789F587E7D0
:1014300097E791838083809160008093710188E1B8
:101440009BE00FB6F894A895809360000FBE909330
:10145000600067CEEEEFFAE0D5CF808191818737CB
:10146000974709F05ECEA8958091600088618093CF
:1014700060008091710180936000EE3F2AE0F207E6
:1014800089F08091FE0A9091FF0A9183808349CE72
:10149000808191818737980751F29093FF0A80935A
:1014A000FE0AC5CF1092FF0A1092FE0A3ACE0E94A1
:1014B0001303DC0112960D911C910115110509F41D
:1014C000E8CED801ED91FC910190F081E02DBE01B4
:1014D0006B5E7F4FC8010995811123CEF80100850D
:1014E0001185EBCF181619060CF41BCED2CEF1E005
:1014F000FF12BECE62EF70E004CF1092880110920E
:10150000870188EE93E0A0E0B0E08093890190939A
:101510008A01A0938B01B0938C018BE291E09093B0
:101520008601809385018FEF9FEF909392018093C6
:1015300091011092E3018091DB01811113C010929F
:10154000D6011092D50186E391E09093D801809363
:10155000D70186E390E09093DA018093D90181E08E
:101560008093DB010E946C05FC01A385B485109774
:1015700009F04CC085ED91E0948783878585968539
:101580002091D9013091DA01820F931F96878587C8
:101590001092F5011092F4018DE391E09093F30124
:1015A0008093F2018091EA01811113C01092E5014C
:1015B0001092E4018CEE91E09093E7018093E601B4
:1015C0008FE290E09093E9018093E80181E08093BD
:1015D000EA010E946C05FC01A385B485109709F50A
:1015E00084EE91E094878387858596852091E80134
:1015F0003091E901820F931F968785878CE691E0F1
:101600009093FF018093FE010895DC018D919C91E0
:1016100011970097D1F785ED91E08D939C93AECF14
:10162000DC018D919C9111970097D1F784EE91E0A8
:101630008D939C93D9CF789484B5826084BD84B512
:10164000816084BD85B5826085BD85B5816085BDBD
:1016500080916E00816080936E0010928100809175
:1016600081008260809381008091810081608093FD
:101670008100809180008160809380008091910042
:1016800082608093910080919100816080939100AD
:10169000809190008160809390008091C10084606F
:1016A0008093C1008091C10082608093C1008091CD
:1016B000C10081608093C1008091C30081608093EC
:1016C000C3008091C00082608093C0008091C200FE
:1016D00081608093C20080917A00846080937A0058
:1016E00080917A00826080937A0080917A00816094
:1016F00080937A0080917A00806880937A001092BB
:10170000840110927401109273018091D70081605E
:101710008093D70080EA8093D80089B5806189BD25
:1017200089B5826089BD09B400FEFDCF61E070E03B
:1017300080E090E00E9493018091D8008F7C8061CE
:101740008093D8008091E000807F8093E0008091BA
:10175000E1008E7E8093E1008DE08093E200559A57
:10176000209A0FB6F894A8958091600088618093C4
:101770006000109260000FBE8FEF9FEF9093920178
:10178000809391018AE090E0A0E0B0E0809389012D
:1017900090938A01A0938B01B0938C018CE691E029
:1017A0009093FF018093FE010E9423060E944A0746
:1017B000E1E2F1E0E49190917B008E2F880F880F99
:1017C00080729F7D892B80937B00E770E064E093BB
:1017D0007C0080917A00806480937A0080917A0006
:1017E00086FDFCCF6091780070917900072E000C87
:1017F000880B990B611571058105910511F00E9407
:101800004F0E11E08FE5882E912CA12CB12C90E089
:10181000292E90E0392E80917901882309F44DC05A
:101820000E94C6016B017C01809175019091760147
:10183000A0917701B0917801B701A601481B590B1F
:101840006A0B7B0B8091130190911401A0911501FB
:10185000B0911601481759076A077B0770F181E0BC
:101860000E9409060E94000E2DE230E040E050E0A8
:101870000E94580E625E7F4F8F4F9F4F0E949301D0
:1018800081E00E94FB05C0927501D0927601E09242
:101890007701F09278010E94000EA50194010E9448
:1018A000580E6B5A7F4F8F4F9F4F60931301709369
:1018B0001401809315019093160185E891E00E9430
:1018C0005904181619060CF048C185E891E00E94E9
:1018D0008903813201F5109279010E9423060E944A
:1018E0004A070E94390164E170E080E090E00E94C4
:1018F0009301F89487E797E7909301088093000895
:1019000088E198E00FB6F894A895809360000FBE28
:1019100090936000FFCF8C3399F40E94FD03C62F93
:101920000E94FD03D62F85E891E00E948903CE979F
:1019300009F0C3CF40E06D2F8C2F0E94DE05BDCF94
:101940008B3421F481E00E946E07B7CF8A3411F402
:1019500082E0F9CF8D3411F484E0F5CF8F3421F497
:1019600041E060E080E0E9CF4FEF8C34D1F3853582
:1019700069F4109279010E9423060E944A0765E0EB
:1019800070E080E090E00E94930197CF883441F4AA
:1019900061E882EF91E00E94B206109279018DCF4A
:1019A000823531F461E882EF91E00E945C06F5CF68
:1019B00062E8883231F062E8893259F08B3531F4CF
:1019C00060E882EF91E00E94B20677CF8D3531F466
:1019D00060E882EF91E00E945C066FCF843531F4BD
:1019E0008091790181278093790167CF8635B1F4A1
:1019F000CDE2D1E0FE016491662339F085E891E003
:101A00000E946E032196892BA9F742E050E065E41D
:101A100071E085E891E00E9458034FCFEFECE80FAA
:101A2000EA3208F04ACF0E2E000CFF0BE65EF24FB2
:101A30000C94BB0E990D9B0D9D0D9F0D590DA10D85
:101A4000A30DA50D550D5D0C5D0C5D0C5D0C5D0CC5
:101A50005D0C5D0C550D440D5B0D930D590D950DF1
:101A60005D0C5D0C5D0C5D0C5D0C5D0C5D0C5D0C2E
:101A70005D0C970D5D0C5D0C5D0C5D0C5D0C5D0CE3
:101A80005D0CA70DA90DAB0D8AEC0E9453070E94B7
:101A9000000E2CE330E040E050E00E94580E6A5BFC
:101AA0007F4F8F4F9F4F0E9493018AEC0E945307F4
:101AB00004CF86ECFBCF109279010E9423066AE0E6
:101AC00070E080E090E00E94930169EC82EF91E089
:101AD0000E94B2060E94000E2CE231E040E050E08D
:101AE0000E94580E6B017C01FCE4CF0EF4E0DF1E77
:101AF000E11CF11C0E94C6012B013C010E94C601A1
:101B000064197509860997096C157D058E059F0571
:101B100038F462E370E080E090E00E949301EECF41
:101B20000E942306CACE84EDC1CF85EDBFCF86EDDE
:101B3000BDCF82ECBBCF83ECB9CF84ECB7CF85ECC3
:101B4000B5CF87ECB3CF88ECB1CF89ECAFCF8BECBE
:101B5000ADCF8CECABCF8DECA9CF2114310409F4BF
:101B60005ACE0E94000057CE8F929F92AF92BF92A2
:101B7000CF92DF92EF92FF92CF93DF93EC016881D7
:101B800079818A819B81611571058105910521F417
:101B900064E279ED8BE597E02DE133EF41E050E031
:101BA0000E94580E49015A019B01AC01A7EAB1E419
:101BB0000E94770E6B017C01ACEEB4EFA50194019D
:101BC0000E94850EC60ED71EE81EF91EF7FE06C03F
:101BD00081E0C81AD108E10880E8F80AC882D982F1
:101BE000EA82FB82C701B6019F77DF91CF91FF9018
:101BF000EF90DF90CF90BF90AF909F908F9008951F
:101C00008F929F92AF92BF92CF92DF92EF92FF920C
:101C100060911701709118018091190190911A013A
:101C2000611571058105910521F464E279ED8BE57B
:101C300097E02DE133EF41E050E00E94580E49015A
:101C40005A019B01AC01A7EAB1E40E94770E6B0137
:101C50007C01ACEEB4EFA50194010E94850EC60E86
:101C6000D71EE81EF91EF7FE06C081E0C81AD1088B
:101C7000E10880E8F80AC0921701D0921801E092BA
:101C80001901F0921A01C701B6019F77FF90EF90FA
:101C9000DF90CF90BF90AF909F908F90089560930A
:101CA0001701709318018093190190931A010895F8
:101CB000052E97FB1EF400940E946F0E57FD07D06F
:101CC0000E948A0E07FC03D04EF40C946F0E5095C0
:101CD0004095309521953F4F4F4F5F4F0895909518
:101CE0008095709561957F4F8F4F9F4F08950E940B
:101CF000AC0EA59F900DB49F900DA49F800D911DDB
:101D000011240895B7FF0C94770E0E94770E821B62
:101D1000930B0895A1E21A2EAA1BBB1BFD010DC057
:101D2000AA1FBB1FEE1FFF1FA217B307E407F5078B
:101D300020F0A21BB30BE40BF50B661F771F881F67
:101D4000991F1A9469F760957095809590959B01FD
:101D5000AC01BD01CF010895A29FB001B39FC001A6
:101D6000A39F700D811D1124911DB29F700D811DC7
:101D70001124911D0895EE0FFF1F0590F491E02DA1
:061D80000994F894FFCF66
:101D860000C18081000000FFFFFFFF00E1000000AE
:101D96000000006400000001000000000000007365
:101DA600042105E604CB04000000006E03580384FA
:101DB60003D20159048903A703000000003007304D
:081DC60006470746070D0A005D
:00000001FF
