:100000000C9407010C942F010C942F010C942F01D8
:100010000C942F010C942F010C942F010C942F01A0
:100020000C942F010C942F010C94D4070C944308CA
:100030000C942F010C942F010C942F010C942F0180
:100040000C942F010C942F010C942F010C942F0170
:100050000C942F010C942F010C942F010C948A07FF
:100060000C942F010C942F010C942F010C942F0150
:100070000C942F010C942F010C942F010C942F0140
:100080000C942F010C942F010C942F010C942F0130
:100090000C942F010C942F010C942F010C942F0120
:1000A0000C942F010C942F010C942F01080B0002CB
:1000B0000202000009040000010202000005240001
:1000C0001001052401010104240206052406000193
:1000D0000705810310004009040100020A00000026
:1000E00007050202400000070583024000000403E8
:1000F000090412010002EF02014041233680000191
:100100000102030141726475696E6F204C4C43001B
:1001100041726475696E6F204C656F6E6172646FB9
:100120000005010902A1010901A1008501050919C4
:1001300001290315002501950375018102950175BB
:1001400005810305010930093116000026FF7F36BD
:10015000000046FF7F751095028102C0C0000000BC
:1001600000000000002A2B28000000000000000012
:10017000000000000000000000000000002C9EB401
:10018000A0A1A2A434A6A7A5AE362D3738271E1FDE
:1001900020212223242526B333B62EB7B89F848589
:1001A000868788898A8B8C8D8E8F90919293949577
:1001B000969798999A9B9C9D2F3130A3AD35040555
:1001C000060708090A0B0C0D0E0F10111213141557
:1001D000161718191A1B1C1DAFB1B0B5000501097F
:1001E00006A1018502050719E029E715002501751B
:1001F000019508810295017508810395067508151A
:100200000025730507190029738100C0750A1124A0
:100210001FBECFEFDAE0DEBFCDBF22E0AAE0B2E042
:1002200001C01D92AE3CB207E1F712E0A0E0B1E0E0
:10023000E6EEF3E202C005900D92AA30B107D9F7BD
:1002400011E0C7E0D1E004C02197FE010E94D70F62
:10025000C630D107C9F70E941B0B0C94F1110C9406
:100260000000FC0180913D02882311F13FB7F89412
:1002700082E08093E9002091F200822F90E018162E
:10028000190614F481E090E0882339F0289844E6B8
:1002900040933C024091F1004083222339F02091A9
:1002A000F200211103C02BE62093E8003FBF089520
:1002B0008FEF9FEF08953FB7F894809138029091A7
:1002C0003902A0913A02B0913B0226B5A89B05C025
:1002D0002F3F19F00196A11DB11D3FBFBA2FA92FC5
:1002E000982F8827BC01CD01620F711D811D911DC2
:1002F00042E0660F771F881F991F4A95D1F708952E
:100300008F929F92AF92BF92CF92DF92EF92FF9225
:100310004B015C010E945B016B017C010E945B014F
:100320006C197D098E099F09683E7340810591050E
:10033000A8F321E0821A9108A108B10888EEC80E3E
:1003400083E0D81EE11CF11C81149104A104B104C6
:1003500029F7FF90EF90DF90CF90BF90AF909F90E4
:100360008F900895409131025091320220912F02D6
:100370003091300242175307B4F49091E800957021
:10038000E1F39091E80092FD19C08093F100809113
:1003900031029091320201968F739927892B19F4BB
:1003A0008EEF8093E80080913102909132020196A5
:1003B000909332028093310281E0089580E00895A5
:1003C000EF92FF920F931F93CF93DF93F82E192F85
:1003D000E62E042F81E0860F880F0E94B20183E091
:1003E0000E94B201CF2DD12FEC0EFD2EF11CCE15A7
:1003F000DF05B9F007FF13C0FE0184910E94B2012E
:10040000182F80E00E94B201812321968111EFCF45
:10041000DF91CF911F910F91FF90EF900895888108
:10042000EDCF81E0F5CFDF92EF92FF920F931F9314
:10043000CF93DF93D82E8A01EB017B01E40EF51EEA
:10044000CE15DF0559F0D7FE12C0FE0184910E943F
:10045000B20121968111F4CF0FEF1FEFC801DF9198
:10046000CF911F910F91FF90EF90DF9008958881B9
:10047000EECF2FB7F89487708093E9009091E80051
:10048000892F807295FF04C09091F20080E4891B4F
:100490002FBF08957F928F929F92AF92BF92CF927B
:1004A000DF92EF92FF920F931F93CF93DF93C82EAB
:1004B0008B017A0180913D02811110C08FEF9FEF77
:1004C000DF91CF911F910F91FF90EF90DF90CF9030
:1004D000BF90AF909F908F907F900895809135024C
:1004E00080FF05C08091E00082608093E000CE2D07
:1004F000DF2DD12C8AEFB82E8C2D8770982E8C2D65
:100500008072882E8C2D8074782E9AE3A92E2097E5
:1005100019F4DD2009F452C08C2D0E94390281119A
:100520000AC0BA94BB2051F261E070E080E090E034
:100530000E948001ECCF8C171D0611F00CF08C2F5F
:100540009FB7F8949092E9002091E80025FD02C041
:100550009FBFDDCF282F30E0C21BD30B882029F0AE
:100560008150A0F01092F100FBCFF801C7FC0AC047
:10057000815050F041914093F100FACF4491409363
:10058000F10031968150D0F7020F131FDD2021F0CA
:10059000A092E800D12CDCCF8091E80085FD07C057
:1005A000A092E800DD24D394209791F2F3CF209716
:1005B00079F6772069F2A092E800CACF5D9884E6C8
:1005C00080933402C7017CCF615030F02091F1005C
:1005D000FC0120830196F8CF289884E680933C02A2
:1005E00008958091270281110DC082E0809323023B
:1005F00084E080932402109226021092250281E06A
:100600008093270283E292E008950F931F93CF9384
:10061000DF931F92CDB7DEB782E0898342E450E0DA
:100620006CEA70E080E80E9413020E94F102DC0193
:1006300012960D911C910115110589F0D801ED91CB
:10064000FC910280F381E02DBE016F5F7F4FC801F6
:10065000099597FD04C0F80100851185ECCF8981CB
:100660000F90DF91CF911F910F910895CF93DF935A
:10067000EC0180911201882331F083E00E944A024C
:100680001816190634F081E090E09B838A8380E09D
:1006900090E0DF91CF910895CF93DF931F92CDB774
:1006A000DEB76983DC01ED91FC910280F381E02DDE
:1006B00041E050E0BE016F5F7F4F09950F90DF91E1
:1006C000CF91089583E08093E9008091F200882320
:1006D00019F08AE38093E800089583E00E943902CC
:1006E00090E00895CF93DF931F92CDB7DEB7FC0162
:1006F0008485958597FD08C02FEF3FEF35872487C8
:100700000F90DF91CF910895CE0101960E943101A3
:10071000019719F4898190E0F3CF8FEF9FEFF0CF2D
:100720002FB7F89480913E0290913F02A091400231
:10073000B09141022FBF80934A0290934B02A09345
:100740004C02B0934D0282E492E00E94720397FF44
:1007500026C02FB7F89480913E0290913F02A0915D
:100760004002B09141022FBF40914A0250914B028A
:1007700060914C0270914D02841B950BA60BB70B38
:10078000409146025091470260914802709149029F
:1007900084179507A607B707B0F28FEF9FEF08956C
:1007A0000F931F93CF93DF931F92CDB7DEB78C01CA
:1007B000FC018485958597FF0BC0CE0101960E94B0
:1007C0003101019771F4898190E0F8019587848760
:1007D000F801848595850F90DF91CF911F910F913E
:1007E00008958FEF9FEFF1CFFC018485958597FDEC
:1007F0000BC09FB7F89482E08093E9008091F200EB
:100800009FBF90E0019608959FB7F89482E080938F
:10081000E9008091F2009FBF90E00895DC01FB01A8
:1008200012962C911297848195812817190641F40C
:1008300091818081813A31F49D7F81E0913009F08E
:1008400080E008958132E1F79B3029F482811F9680
:100850008C9381E008959A3099F7828150968C9319
:10086000F8CFAF92BF92CF92DF92EF92FF920F93A9
:100870001F93CF93DF931F92CDB7DEB77C016983BF
:100880006A01590141E050E0BE016F5F7F4FFC01FA
:1008900083810E944A028C0197FD0BC0F70183817E
:1008A000A501B60180640E944A02080F191F97FD36
:1008B0008C01C8010F90DF91CF911F910F91FF9094
:1008C000EF90DF90CF90BF90AF900895DC01FB01D7
:1008D00088E4808389E4818384E482831D969C91EB
:1008E0001D979F709F5B93831D968D919C9124E033
:1008F000969587952A95E1F78F708F5B848385E0C5
:100900000895EF92FF920F931F93CF93DF93FB0114
:100910002081213871F52381223259F5DC011296AC
:100920004C91248135814217130619F5EC010B8592
:100930001C85F12CE12C0115110589F0F801448189
:1009400055816281738180E80E9413028F3F98076E
:1009500049F0E80EF91ED8010D911C91ECCF81E011
:100960008F87C701DF91CF911F910F91FF90EF907B
:10097000089590E080E0F6CFCF93DF93CDB7DEB758
:1009800069970FB6F894DEBF0FBECDBFFC01DB0147
:100990008C918F5F8C939E012D5F3F4F8DE0D9012D
:1009A0001D928A95E9F729E0298384E08A8391E002
:1009B0009D8383E08E832A8721E22B879C879D87F6
:1009C0009F8722E2288B27E02B8B25E02C8B8E8BB8
:1009D00020E430E0388F2F8B998F82818B8395852F
:1009E0008685998B8A8B838180688D8B49E150E065
:1009F000BE016F5F7F4F80E00E94130269960FB6C1
:100A0000F894DEBF0FBECDBFDF91CF910895CF9395
:100A1000DF9380911B02811167C081E080930E02F9
:100A200080930F0224E132E03093110220931002F0
:100A300010921302109212022DE131E030930B025A
:100A400020930A02109216021092150210921802B8
:100A5000109217028093190280931A0281EC8093FE
:100A600014020E94F102FC01818190910E02482F34
:100A7000490F5527551F483051059CF5A281B38178
:100A8000109709F52AE032E03383228320812093F6
:100A90000C0280930D0280910F02820F80832091BF
:100AA0001002A22FB09111028A2F821B8917C8F45D
:100AB00081813D91C82FD0E0C050DF4F38838F5FD8
:100AC0008183F2CFD90118962D913C911997211568
:100AD0003105C1F72AE032E019963C932E9318971E
:100AE000D5CF81E080931B028AE092E0DF91CF9125
:100AF0000895CF93DF9300D000D01F92CDB7DEB71B
:100B0000E0EAF2E080818983918182819A838B83FC
:100B1000938184819C838D830E94070525E030E0CA
:100B2000AE014F5F5F4F61E00E9431040F900F9064
:100B30000F900F900F90DF91CF9108959091A002A8
:100B4000892B8093A0028091AD0281110C947905CC
:100B50000895CF92DF92EF92FF920F931F93CF935E
:100B6000DF936C01EB017B01E40EF51E10E000E069
:100B7000CE15DF0581F069916D30D1F3D601ED918D
:100B8000FC910190F081E02DC6010995892B19F0A7
:100B90000F5F1F4FEDCFC801DF91CF911F910F91D4
:100BA000FF90EF90DF90CF900895EF92FF921F9308
:100BB000CF93DF93EC01162FE8E7E60F683888F44F
:100BC000862F90E067FF5CC0FC01E058F10921E04E
:100BD00030E001C0220FEA95EAF78C81822B8C83EA
:100BE000E0E08E818E17D9F08F81E817C1F08885FB
:100BF000E817A9F08985E81791F08A85E81779F058
:100C00008B85E81761F0DE01169690E080E02D916B
:100C100021116AC08C0F9D1FDC011696EC930E9477
:100C2000070528E030E0AE014C5F5F4F62E00E94B4
:100C30003104EE24E394F12C183878F11858DE01D1
:100C400086E0112341F016969C911697191303C064
:100C500016961C921697815011968111F2CF0E9420
:100C60000705AE014C5F5F4F28E030E062E00E9474
:100C70003104C701DF91CF911F91FF90EF9008954C
:100C8000EC85FD85E80FF91FE491E11119C081E0C1
:100C900090E09B838A83F12CE12C812F90E017FF59
:100CA0002FC0FC01E058F10981E090E001C0880FFD
:100CB000EA95EAF780959C8189238C8310E0BFCF69
:100CC0008E2F807C803C49F48C8180648C83EF7310
:100CD000E23309F086CFE4E684CFE7FFF9CF8C81D9
:100CE00082608C83EF77F4CF01968630910509F00E
:100CF0008ECF81E090E09B838A83F12CE12C9CCF06
:100D0000EC85FD85E80FF91F1491112309F4B1CF8B
:100D1000812F807C803C49F48C818F7B8C831F7376
:100D2000123309F08CCF14E68ACF17FFF9CF8C81EC
:100D30008D7F8C831F77F4CF089590E080E0089535
:100D4000FC0124813581232B39F421E0FB018081D2
:100D5000882349F020E007C0808191810E94D3114F
:100D600021E0892BB9F7822F08950F931F93CF931A
:100D7000DF93EC0188819981009759F02A813B81AA
:100D80002617370730F081E0DF91CF911F910F9147
:100D900008958B016F5F7F4F0E940211009759F0F9
:100DA000998388831B830A832C813D81232B59F7E8
:100DB000FC011082E8CF80E0E7CFCF93DF93EC0116
:100DC00088819981009711F00E9479101982188208
:100DD0001D821C821B821A82DF91CF910895EF92AF
:100DE000FF920F931F93CF93DF938C017B01EB0155
:100DF00009900020E9F72197C61BD70BBE010E947E
:100E0000B506811109C0C801DF91CF911F910F91E3
:100E1000FF90EF900C94DD06F801D583C483B701F1
:100E200080819181DF91CF911F910F91FF90EF9081
:100E30000C94DC119F92AF92BF92CF92DF92EF920F
:100E4000FF920F931F93CF93DF93EC016B015A0135
:100E500079012417350720F48B2D5901E42EF82E43
:100E6000198218821B821A821D821C826FE471E033
:100E7000CE010E94EF06D60114960D911C91A0168A
:100E8000B10658F5E016F10608F48701D601ED9198
:100E9000FC911197E00FF11F90801082ED90FC9073
:100EA000EA0CFB1CE114F10471F0F7010190002041
:100EB000E9F731975F01AE18BF08B501CE010E9476
:100EC000B506811117C0CE010E94DD06F6018081B2
:100ED0009181080F191FD8019C92CE01DF91CF910B
:100EE0001F910F91FF90EF90DF90CF90BF90AF9048
:100EF0009F900895BD82AC82B701888199810E943C
:100F0000DC11E4CFFC0180819181009711F00C94F9
:100F1000791008951F920F920FB60F9211242F93FC
:100F20003F938F939F93AF93BF9380913E02909195
:100F30003F02A0914002B09141023091370223E07C
:100F4000230F2D3758F50196A11DB11D20933702AF
:100F500080933E0290933F02A0934002B0934102DF
:100F60008091380290913902A0913A02B0913B02EF
:100F70000196A11DB11D8093380290933902A09370
:100F80003A02B0933B02BF91AF919F918F913F91F5
:100F90002F910F900FBE0F901F90189526E8230FEA
:100FA0000296A11DB11DD2CF1F920F920FB60F92C4
:100FB00011248F939F938091E1009091E100937FA2
:100FC0009093E10083FF0FC01092E90091E09093AD
:100FD000EB001092EC0092E39093ED0010923D0232
:100FE00098E09093F00082FF22C093E09093E90094
:100FF0009091F200992319F09AE39093E800909170
:101000003402992341F0909134029150909334022C
:10101000911101C05D9A90913C02992341F0909109
:101020003C02915090933C02911101C0289A84FF98
:1010300018C08091E2008E7E81608093E2008091F2
:10104000E1008F7E8093E100809135028E7E806189
:10105000809335029F918F910F900FBE0F901F903C
:10106000189580FFF7CF8091E2008E7E806180939B
:10107000E2008091E1008E7E8093E1008091350254
:101080008E7E8160E5CF1F920F920FB60F921124D2
:10109000CF92DF92EF92FF920F931F932F933F9384
:1010A0004F935F936F937F938F939F93AF93BF9370
:1010B000EF93FF93CF93DF93CDB7DEB76C97DEBF8F
:1010C000CDBF1092E9008091E80083FF25C068E061
:1010D000CE0145960E94E40282EF8093E8008D895C
:1010E00087FF39C09091E80090FFFCCF982F907651
:1010F00009F034C19E894F89588D2F89F88C911140
:1011000031C0803861F5809136028093F1001092F1
:10111000F1008EEF8093E8006C960FB6F894DEBF76
:101120000FBECDBFDF91CF91FF91EF91BF91AF91F6
:101130009F918F917F916F915F914F913F912F91EF
:101140001F910F91FF90EF90DF90CF900F900FBE07
:101150000F901F9018959EEF9093E800C7CF1092C4
:10116000F100D5CF913059F48111D3CF41305105E1
:1011700081F6809136028D7F80933602CACF9330FC
:1011800049F48111C6CF4130510519F680913602DC
:101190008260F2CF953041F48091E80080FFFCCF6F
:1011A00020682093E300B5CF963009F0A9C00B8DDD
:1011B0001C8D22E01092E90010923202109231024E
:1011C000F2122EC01092300210922F020E940503DC
:1011D0001F8299E09983FA8291E09E8390EA988732
:1011E0009AEF99872091310230913202275F3F4F69
:1011F0003C832B838D831092E9001092320210926F
:1012000031021093300200932F0249E050E0BE01FA
:101210006F5F7F4F80E00E9413020E94050379CF29
:101220001093300200932F020E94F102DC0112960B
:101230000D911C910115110509F451C1D801ED91D1
:10124000FC910480F581E02DBE016B5E7F4FC801EB
:101250000995009709F03EC1F80100851185EACF94
:10126000F3E0FF120EC08F89882309F440C082305A
:1012700061F440E860E180E191E00E94E0018111C9
:1012800048CF81E28093EB0047CF813029F440E8DA
:101290006BE084E091E0F1CF833099F70E94F10296
:1012A000DC011296ED90FC908E010F5F1F4F6801DC
:1012B000E114F10479F0D701ED91FC910680F781FA
:1012C000E02DB801C7010995080F111DF701E08451
:1012D000F184EECFD8011C92F60101900020E9F7CD
:1012E0003197BF016C197D0940E0C601C6CF6EEE93
:1012F00070E0FB01449150E080E80E94130209CFA6
:10130000973009F4BECF983021F481E08093F1004A
:1013100000CF993009F0FDCE837009F0B2CFE1E043
:10132000F1E081E031E096E32191222371F0809396
:10133000E9003093EB00DF0111972C912093EC0032
:101340009093ED008F5F873079F78EE78093EA0006
:101350001092EA008F8980933D02DBCE8B8D9C8DAD
:101360001092E900109232021092310290933002F2
:1013700080932F02898D811192C08E899D89913A27
:1013800049F4813209F07DCF47E050E06BE071E035
:1013900080E0B3CF913209F074CF833269F48F8942
:1013A000988DB0E0A0E08093070190930801A0938E
:1013B0000901B0930A01ADCE803269F48091E80052
:1013C00082FFFCCF67E08BE091E00E94E4028BEFAC
:1013D0008093E8009ECE823209F09BCE8F89809365
:1013E0001201EEEFFFE7859194918B3F9C4D51F1F7
:1013F000E0E0F8E080910B0190910C01A0910D01CB
:10140000B0910E01803B9440A105B105F1F48091AB
:10141000120180FD1AC0EE3F8AE0F80789F587E7E0
:1014200097E791838083809160008093330288E105
:101430009BE00FB6F894A895809360000FBE909340
:10144000600067CEEEEFFAE0D5CF808191818737DB
:10145000974709F05ECEA8958091600088618093DF
:1014600060008091330280936000EE3F2AE0F20733
:1014700089F08091FE0A9091FF0A9183808349CE82
:10148000808191818737980751F29093FF0A80936A
:10149000FE0AC5CF1092FF0A1092FE0A3ACE0E94B1
:1014A000F102DC0112960D911C910115110509F450
:1014B000E8CED801ED91FC910190F081E02DBE01C4
:1014C0006B5E7F4FC8010995811123CEF80100851D
:1014D0001185EBCF181619060CF41BCED2CEF1E015
:1014E000FF12BECE62EF70E004CF10924502109260
:1014F000440288EE93E0A0E0B0E08093460290932F
:101500004702A0934802B093490289E291E0909388
:101510004302809342028FEF9FEF90934F0280939C
:101520004E021092A0021092A2021092A1021092FA
:10153000A4021092A30280919802811113C010920C
:1015400093021092920281E291E09093950280932F
:1015500094028CE390E0909397028093960281E04E
:10156000809398020E940705FC01A385B48510971B
:1015700009F04CC082E992E094878387858596853F
:101580002091960230919702820F931F968785874C
:101590001092BF021092BE028BE391E09093BD02C5
:1015A0008093BC028091B402811113C01092AF02EB
:1015B0001092AE028DED91E09093B1028093B00253
:1015C0008FE290E09093B3028093B20281E0809327
:1015D000B4020E940705FC01A385B485109709F5A4
:1015E0008EEA92E094878387858596852091B20262
:1015F0003091B302820F931F968785878DE591E026
:101600009093C9028093C8020895DC018D919C914A
:1016100011970097D1F782E992E08D939C93AECF1A
:10162000DC018D919C9111970097D1F78EEA92E0A1
:101630008D939C93D9CFCF93DF93CDB7DEB72C9703
:101640000FB6F894DEBF0FBECDBF789484B582602C
:1016500084BD84B5816084BD85B5826085BD85B556
:10166000816085BD80916E00816080936E001092D4
:10167000810080918100826080938100809181004F
:1016800081608093810080918000816080938000E0
:10169000809191008260809391008091910081609F
:1016A0008093910080919000816080939000809160
:1016B000C10084608093C1008091C10082608093EA
:1016C000C1008091C10081608093C1008091C300FE
:1016D00081608093C3008091C00082608093C000CD
:1016E0008091C20081608093C20080917A00846002
:1016F00080937A0080917A00826080937A00809152
:101700007A00816080937A0080917A00806880936B
:101710007A0010923D0210923602109235028091AA
:10172000D70081608093D70080EA8093D80089B584
:10173000806189BD89B5826089BD09B400FEFDCF95
:1017400061E070E080E090E00E9480018091D8002C
:101750008F7C80618093D8008091E000807F8093AF
:10176000E0008091E1008E7E8093E1008DE0809327
:10177000E200559A209A82E390E0A0E0B0E08093E6
:10178000460290934702A0934802B09349028FEF1C
:101790009FEF90934F0280934E028DE591E09093DE
:1017A000C9028093C8028FEF9FE7A0E0B0E080936A
:1017B000A5029093A602A093A702B093A8028093DB
:1017C000A9029093AA02A093AB02B093AC0281E06D
:1017D0008093AD0280E0A82E80E0B82E82E492E0F3
:1017E0000E94F403181619060CF059C018861F82BF
:1017F0001A8619861C861B866FE471E0CE01079657
:101800000E94EF060E9490030B851C8597FD1CC06B
:101810008A309105C9F089831A820F5F1F4FB80182
:10182000CE0107960E94B506882361F32F81388583
:101830008B859C85BE016F5F7F4F820F931F0E9437
:10184000DC111C870B87DECFCF80D884C114D10474
:1018500021F076010115110551F58B859C85892BA9
:10186000D1F063E471E0CE0107960E94A006182F24
:10187000882309F452C045E050E067E471E082E457
:1018800092E00E94360342E050E06DE471E082E4B1
:1018900092E00E943603CE0107960E948207A114AF
:1018A000B10409F49BCF0E94000098CF7401470156
:1018B0002FEF821A920AF7018081082E000C990BF3
:1018C0000E94580F892B91F7015011090C0D1D1D15
:1018D000F8018081082E000C990B0E94580F892B6B
:1018E00031F00E151F0518F001501109F1CFA801B4
:1018F0004F5F5F4F4E195F095C874B87CE14DF0443
:1019000020F4B701C6010E94BF11EF81F8858B85D5
:101910009C85E80FF91F1082A0CF1A8219821C82C1
:101920001B821E821D8260E571E0CE0101960E943D
:10193000EF064D815E818B859C858417950778F035
:101940008F819885009759F069817A8161157105B9
:1019500031F00E94E31111E0892B09F010E0CE0173
:1019600001960E948207112309F49FC08B859C85F4
:10197000039708F490CF0F81188560E270E0C801EA
:1019800002960E94C811009709F485CF9C01201B84
:10199000310B8901121613060CF07DCF42E050E0A6
:1019A000BE01695F7F4FCE0101960E941A078981AF
:1019B0009A81009709F46FC00E941C0F4B016C01C3
:1019C000CE0101960E9482072B853C85A8014F5FBE
:1019D0005F4FBE01695F7F4FCE0101960E941A07DB
:1019E00089819A81009709F45BC00E941C0F7B01DA
:1019F0008C01CE0101960E9482079401A601211557
:101A000080E838074105510524F02FEF3FE740E01B
:101A100050E057FF03C020E030E0A901AFEFBFE77F
:101A20000E94640F2091A5023091A6024091A70266
:101A30005091A8020E94B50F3093A2022093A102F8
:101A40009701A8012115E0E83E074105510524F062
:101A50002FEF3FE740E050E057FF03C020E030E0C9
:101A6000A901AFEFBFE70E94640F2091A902309156
:101A7000AA024091AB025091AC020E94B50F309384
:101A8000A4022093A3028091AD02882309F403CF1E
:101A90000E94790500CF812C912CC12CD12C90CFA4
:101AA000E12CF12C00E010E0A4CF63E571E0CE0161
:101AB00007960E94A006882379F081E00E949E0587
:101AC0006FE070E080E090E00E9480018091A002D1
:101AD0008E7F8093A002D7CF66E571E0CE01079696
:101AE0000E94A006882321F081E00E949E05D3CEAB
:101AF00069E571E0CE0107960E94A0068111E6CF4C
:101B00006CE571E0CE0107960E94A006882369F07B
:101B100082E00E949E056FE070E080E090E00E940D
:101B200080018091A0028D7FD4CF60E671E0CE016C
:101B300007960E94A006811157C163E671E0CE01AD
:101B400007960E94A00681114FC166E671E0CE01A2
:101B500007960E94A00681114DC169E671E0CE0191
:101B600007960E94A006811145C16CE671E0CE0186
:101B700007960E94A00681113FC16FE671E0CE0179
:101B800007960E94A006811137C162E771E0CE017D
:101B900007960E94A006811131C165E771E0CE0170
:101BA00007960E94A006811129C168E771E0CE0165
:101BB00007960E94A006811123C16BE771E0CE0158
:101BC00007960E94A00681111BC16EE771E0CE014D
:101BD00007960E94A006811115C161E871E0CE014F
:101BE00007960E94A00681110DC164E871E0CE0144
:101BF00007960E94A006811107C167E871E0CE0137
:101C000007960E94A0068111FFC06AE871E0CE012C
:101C100007960E94A0068111F9C06DE871E0CE011F
:101C200007960E94A0068111F1C060E971E0CE0123
:101C300007960E94A0068111EBC063E971E0CE0116
:101C400007960E94A0068111E3C066E971E0CE010B
:101C500007960E94A0068111DDC06AE971E0CE01FD
:101C600007960E94A0068111D5C06EE971E0CE01F1
:101C700007960E94A0068111CFC062EA71E0CE01F2
:101C800007960E94A0068111C7C066EA71E0CE01E6
:101C900007960E94A0068111C1C06AEA71E0CE01D8
:101CA00007960E94A0068111B9C06EEA71E0CE01CC
:101CB00007960E94A0068111B3C063EB71E0CE01CC
:101CC00007960E94A0068111ABC068EB71E0CE01BF
:101CD00007960E94A0068111A5C06CEB71E0CE01B1
:101CE00007960E94A00681119DC060EC71E0CE01B4
:101CF00007960E94A006811197C066EC71E0CE01A4
:101D000007960E94A00681118FC06CEC71E0CE0195
:101D100007960E94A006811189C060ED71E0CE0196
:101D200007960E94A006811181C064ED71E0CE018A
:101D300007960E94A006811179C06BED71E0CE017B
:101D400007960E94A006811173C061EE71E0CE017A
:101D500007960E94A00681116BC068EE71E0CE016B
:101D600007960E94A006811165C06CEE71E0CE015D
:101D700007960E94A00662EB811137C066EF71E002
:101D8000CE0107960E94A0066AED81112EC069EF70
:101D900071E0CE0107960E94A00669ED811125C071
:101DA0006EEF71E0CE0107960E94A00668ED8111EA
:101DB0001CC063E072E0CE0107960E94A00667EDAA
:101DC000811113C060EF71E0CE0107960E94A0065A
:101DD00060E281110AC04B855C856F8178858CEB50
:101DE00092E00E94A90557CD62EC8CEB92E00E9434
:101DF000D50551CD63ECF9CF64ECF7CF65ECF5CFA9
:101E000066ECF3CF67ECF1CF68ECEFCF69ECEDCF88
:101E10006AECEBCF6BECE9CF6CECE7CF6DECE5CF88
:101E200060E8E3CF62E8E1CF61E8DFCF61EBDDCFCF
:101E300060EBDBCF63EBD9CF1F93FC019927882799
:101E4000BC01E89411911032E9F3193010F01E3002
:101E5000C8F31B3251F01D3249F4689406C00E9449
:101E6000430F610F711D811D911D119110531A3087
:101E7000B0F33EF490958095709561957F4F8F4FAC
:101E80009F4F1F910895592F482F372F262F660FE8
:101E9000771F881F991F660F771F881F991F620F72
:101EA000731F841F951F660F771F881F991F089542
:101EB00091110C94610F803219F089508550C8F748
:101EC00008959927882708950E94A60FA59F900D31
:101ED000B49F900DA49F800D911D112408952F9201
:101EE0003F924F925F926F927F928F929F92AF92AA
:101EF000BF92CF92DF92EF92FF920F931F93CF93F7
:101F0000DF93CDB7DEB7CA1BDB0B0FB6F894DEBF8D
:101F10000FBECDBF09942A88398848885F846E84B3
:101F20007D848C849B84AA84B984C884DF80EE80FD
:101F3000FD800C811B81AA81B981CE0FD11D0FB606
:101F4000F894DEBF0FBECDBFED010895A29FB00192
:101F5000B39FC001A39F700D811D1124911DB29FDD
:101F6000700D811D1124911D0895A1E21A2EAA1B46
:101F7000BB1BFD010DC0AA1FBB1FEE1FFF1FA21739
:101F8000B307E407F50720F0A21BB30BE40BF50B36
:101F9000661F771F881F991F1A9469F760957095BF
:101FA000809590959B01AC01BD01CF010895EE0F86
:101FB000FF1F0590F491E02D09940F931F93CF9389
:101FC000DF938230910510F482E090E0E091CC0242
:101FD000F091CD0230E020E0B0E0A0E0309799F43D
:101FE0002115310509F44AC0281B390B243031056D
:101FF000D8F58A819B816115710589F1FB01938375
:102000008283FE0111C040815181028113814817F2
:102010005907E0F04817590799F4109761F01296A4
:102020000C93129713961C933296CF01DF91CF91A8
:102030001F910F9108950093CC021093CD02F4CF1D
:102040002115310551F04217530738F0A901DB0182
:102050009A01BD01DF01F801C1CFEF01F9CF9093E3
:10206000CD028093CC02CDCFFE01E20FF31F81930E
:1020700091932250310939832883D7CF2091CA0206
:102080003091CB02232B41F42091150130911601A0
:102090003093CB022093CA02209113013091140196
:1020A0002115310541F42DB73EB7409117015091EC
:1020B0001801241B350BE091CA02F091CB02E21704
:1020C000F307A0F42E1B3F0B2817390778F0AC015B
:1020D0004E5F5F4F2417350748F04E0F5F1F509338
:1020E000CB024093CA02819391939FCFF0E0E0E04E
:1020F0009CCFCF93DF930097E9F0FC0132971382D6
:102100001282A091CC02B091CD02ED0130E020E02E
:102110001097A1F420813181820F931F2091CA0270
:102120003091CB022817390709F061C0F093CB0238
:10213000E093CA02DF91CF910895EA01CE17DF073D
:10214000E8F54A815B819E0141155105B1F7E9012E
:10215000FB83EA8349915991C40FD51FEC17FD0702
:1021600061F4808191810296840F951FE901998322
:102170008883828193819B838A83F0E0E0E01296DA
:102180008D919C9113970097B9F52D913C911197E2
:10219000CD010296820F931F2091CA023091CB028B
:1021A0002817390739F6309751F51092CD02109261
:1021B000CC02B093CB02A093CA02BCCFD383C2831C
:1021C00040815181840F951FC817D90761F44E5F74
:1021D0005F4F88819981480F591F518340838A81BD
:1021E0009B81938382832115310509F0B0CFF09351
:1021F000CD02E093CC029ECFFD01DC01C0CF138263
:102200001282D7CFB0E0A0E0E8E0F1E10C94710FCA
:102210008C01009751F4CB010E94DD0F8C01C801A5
:10222000CDB7DEB7E0E10C948D0FFC01E60FF71F90
:102230009C0122503109E217F30708F49DC0D9012F
:10224000CD91DC911197C617D70798F0C530D1050D
:1022500030F3CE0104978617970708F3C61BD70BF8
:102260002297C193D1936D937C93CF010E947910F3
:10227000D6CF5B01AC1ABD0A4C018C0E9D1EA091FD
:10228000CC02B091CD02512C412CF12CE12C1097B5
:1022900031F58091CA029091CB028815990509F019
:1022A0005CC04616570608F058C080911301909103
:1022B0001401009741F48DB79EB7409117015091DA
:1022C0001801841B950BE817F90708F055C0F09327
:1022D000CB02E093CA02F90171836083A0CF8D9194
:1022E0009C91119712966C90129713967C9013976D
:1022F000A815B90559F56C0142E0C40ED11CCA14E9
:10230000DB0420F1AC014A195B09DA01129615973A
:1023100080F06282738251834083D9016D937C93F4
:10232000E114F10471F0D7011396FC93EE93129728
:1023300076CF22968C0F9D1FF90191838083F30144
:10234000EFCFF093CD02E093CC0269CF4816590647
:1023500008F42C017D01D3019ACFCB010E94DD0F3F
:102360007C01009749F0AE01B8010E94BF11C8017D
:102370000E947910870153CF10E000E050CFFB019D
:10238000DC0102C001900D9241505040D8F70895F1
:10239000FC018191861721F08823D9F799270895A8
:1023A0003197CF010895FB01DC018D9101908019D7
:1023B0000110D9F3990B0895FB01DC0101900D92F6
:1023C0000020E1F70895FB01DC014150504030F05E
:1023D0008D910190801919F40020B9F7881B990B91
:0623E0000895F894FFCF00
:1023E60000C18081000000FFFFFFFF00E100000048
:1023F6000000000000CE028000000000000E04BCB9
:102406000481046604000000004C0336036D036279
:1024160003F4037203D00300000000D505A9059D4F
:10242600069C06766572004353467632000D0A0016
:102436006D20006D63006D64006D75006D72630044
:102446006631004631006632004632006633004689
:10245600330066340046340066350046350066367D
:1024660000463600663700463700663800463800B4
:102476006639004639006631300046313000663133
:102486003100463131006631320046313200637424
:10249600726C004354524C00616C7400414C540001
:1024A600736869667400534849465400657363004F
:1024B6004553430065736361706500656E746572AC
:1024C6000072657475726E00746162006261636B9E
:1024D600737061636500757000646F776E006C657C
:0A24E60066740072696768740000F4
:00000001FF
